{
  "contractName": "MusicCopyrightNFT",
  "abi": [
    {
      "inputs": [],
      "stateMutability": "nonpayable",
      "type": "constructor"
    },
    {
      "inputs": [
        {
          "internalType": "uint256",
          "name": "numerator",
          "type": "uint256"
        },
        {
          "internalType": "uint256",
          "name": "denominator",
          "type": "uint256"
        }
      ],
      "name": "ERC2981InvalidDefaultRoyalty",
      "type": "error"
    },
    {
      "inputs": [
        {
          "internalType": "address",
          "name": "receiver",
          "type": "address"
        }
      ],
      "name": "ERC2981InvalidDefaultRoyaltyReceiver",
      "type": "error"
    },
    {
      "inputs": [
        {
          "internalType": "uint256",
          "name": "tokenId",
          "type": "uint256"
        },
        {
          "internalType": "uint256",
          "name": "numerator",
          "type": "uint256"
        },
        {
          "internalType": "uint256",
          "name": "denominator",
          "type": "uint256"
        }
      ],
      "name": "ERC2981InvalidTokenRoyalty",
      "type": "error"
    },
    {
      "inputs": [
        {
          "internalType": "uint256",
          "name": "tokenId",
          "type": "uint256"
        },
        {
          "internalType": "address",
          "name": "receiver",
          "type": "address"
        }
      ],
      "name": "ERC2981InvalidTokenRoyaltyReceiver",
      "type": "error"
    },
    {
      "inputs": [
        {
          "internalType": "address",
          "name": "sender",
          "type": "address"
        },
        {
          "internalType": "uint256",
          "name": "tokenId",
          "type": "uint256"
        },
        {
          "internalType": "address",
          "name": "owner",
          "type": "address"
        }
      ],
      "name": "ERC721IncorrectOwner",
      "type": "error"
    },
    {
      "inputs": [
        {
          "internalType": "address",
          "name": "operator",
          "type": "address"
        },
        {
          "internalType": "uint256",
          "name": "tokenId",
          "type": "uint256"
        }
      ],
      "name": "ERC721InsufficientApproval",
      "type": "error"
    },
    {
      "inputs": [
        {
          "internalType": "address",
          "name": "approver",
          "type": "address"
        }
      ],
      "name": "ERC721InvalidApprover",
      "type": "error"
    },
    {
      "inputs": [
        {
          "internalType": "address",
          "name": "operator",
          "type": "address"
        }
      ],
      "name": "ERC721InvalidOperator",
      "type": "error"
    },
    {
      "inputs": [
        {
          "internalType": "address",
          "name": "owner",
          "type": "address"
        }
      ],
      "name": "ERC721InvalidOwner",
      "type": "error"
    },
    {
      "inputs": [
        {
          "internalType": "address",
          "name": "receiver",
          "type": "address"
        }
      ],
      "name": "ERC721InvalidReceiver",
      "type": "error"
    },
    {
      "inputs": [
        {
          "internalType": "address",
          "name": "sender",
          "type": "address"
        }
      ],
      "name": "ERC721InvalidSender",
      "type": "error"
    },
    {
      "inputs": [
        {
          "internalType": "uint256",
          "name": "tokenId",
          "type": "uint256"
        }
      ],
      "name": "ERC721NonexistentToken",
      "type": "error"
    },
    {
      "inputs": [
        {
          "internalType": "address",
          "name": "owner",
          "type": "address"
        }
      ],
      "name": "OwnableInvalidOwner",
      "type": "error"
    },
    {
      "inputs": [
        {
          "internalType": "address",
          "name": "account",
          "type": "address"
        }
      ],
      "name": "OwnableUnauthorizedAccount",
      "type": "error"
    },
    {
      "anonymous": false,
      "inputs": [
        {
          "indexed": true,
          "internalType": "address",
          "name": "owner",
          "type": "address"
        },
        {
          "indexed": true,
          "internalType": "address",
          "name": "approved",
          "type": "address"
        },
        {
          "indexed": true,
          "internalType": "uint256",
          "name": "tokenId",
          "type": "uint256"
        }
      ],
      "name": "Approval",
      "type": "event"
    },
    {
      "anonymous": false,
      "inputs": [
        {
          "indexed": true,
          "internalType": "address",
          "name": "owner",
          "type": "address"
        },
        {
          "indexed": true,
          "internalType": "address",
          "name": "operator",
          "type": "address"
        },
        {
          "indexed": false,
          "internalType": "bool",
          "name": "approved",
          "type": "bool"
        }
      ],
      "name": "ApprovalForAll",
      "type": "event"
    },
    {
      "anonymous": false,
      "inputs": [
        {
          "indexed": false,
          "internalType": "uint256",
          "name": "_fromTokenId",
          "type": "uint256"
        },
        {
          "indexed": false,
          "internalType": "uint256",
          "name": "_toTokenId",
          "type": "uint256"
        }
      ],
      "name": "BatchMetadataUpdate",
      "type": "event"
    },
    {
      "anonymous": false,
      "inputs": [
        {
          "indexed": false,
          "internalType": "uint256",
          "name": "_tokenId",
          "type": "uint256"
        }
      ],
      "name": "MetadataUpdate",
      "type": "event"
    },
    {
      "anonymous": false,
      "inputs": [
        {
          "indexed": true,
          "internalType": "uint256",
          "name": "tokenId",
          "type": "uint256"
        },
        {
          "indexed": true,
          "internalType": "address",
          "name": "creator",
          "type": "address"
        },
        {
          "indexed": false,
          "internalType": "string",
          "name": "title",
          "type": "string"
        },
        {
          "indexed": false,
          "internalType": "string",
          "name": "artist",
          "type": "string"
        },
        {
          "indexed": false,
          "internalType": "string",
          "name": "tokenURI",
          "type": "string"
        },
        {
          "indexed": false,
          "internalType": "enum MusicCopyrightNFT.LicenseType",
          "name": "licenseType",
          "type": "uint8"
        }
      ],
      "name": "MusicMinted",
      "type": "event"
    },
    {
      "anonymous": false,
      "inputs": [
        {
          "indexed": true,
          "internalType": "address",
          "name": "previousOwner",
          "type": "address"
        },
        {
          "indexed": true,
          "internalType": "address",
          "name": "newOwner",
          "type": "address"
        }
      ],
      "name": "OwnershipTransferred",
      "type": "event"
    },
    {
      "anonymous": false,
      "inputs": [
        {
          "indexed": true,
          "internalType": "address",
          "name": "from",
          "type": "address"
        },
        {
          "indexed": true,
          "internalType": "address",
          "name": "to",
          "type": "address"
        },
        {
          "indexed": true,
          "internalType": "uint256",
          "name": "tokenId",
          "type": "uint256"
        }
      ],
      "name": "Transfer",
      "type": "event"
    },
    {
      "inputs": [
        {
          "internalType": "address",
          "name": "to",
          "type": "address"
        },
        {
          "internalType": "uint256",
          "name": "tokenId",
          "type": "uint256"
        }
      ],
      "name": "approve",
      "outputs": [],
      "stateMutability": "nonpayable",
      "type": "function"
    },
    {
      "inputs": [
        {
          "internalType": "address",
          "name": "owner",
          "type": "address"
        }
      ],
      "name": "balanceOf",
      "outputs": [
        {
          "internalType": "uint256",
          "name": "",
          "type": "uint256"
        }
      ],
      "stateMutability": "view",
      "type": "function"
    },
    {
      "inputs": [
        {
          "internalType": "uint256",
          "name": "tokenId",
          "type": "uint256"
        }
      ],
      "name": "getApproved",
      "outputs": [
        {
          "internalType": "address",
          "name": "",
          "type": "address"
        }
      ],
      "stateMutability": "view",
      "type": "function"
    },
    {
      "inputs": [
        {
          "internalType": "address",
          "name": "owner",
          "type": "address"
        },
        {
          "internalType": "address",
          "name": "operator",
          "type": "address"
        }
      ],
      "name": "isApprovedForAll",
      "outputs": [
        {
          "internalType": "bool",
          "name": "",
          "type": "bool"
        }
      ],
      "stateMutability": "view",
      "type": "function"
    },
    {
      "inputs": [
        {
          "internalType": "uint256",
          "name": "",
          "type": "uint256"
        }
      ],
      "name": "musicInfos",
      "outputs": [
        {
          "internalType": "string",
          "name": "title",
          "type": "string"
        },
        {
          "internalType": "string",
          "name": "artist",
          "type": "string"
        },
        {
          "internalType": "bytes32",
          "name": "audioHash",
          "type": "bytes32"
        },
        {
          "internalType": "bytes32",
          "name": "rightsHash",
          "type": "bytes32"
        },
        {
          "internalType": "enum MusicCopyrightNFT.LicenseType",
          "name": "licenseType",
          "type": "uint8"
        },
        {
          "internalType": "address",
          "name": "creator",
          "type": "address"
        },
        {
          "internalType": "uint256",
          "name": "createdAt",
          "type": "uint256"
        }
      ],
      "stateMutability": "view",
      "type": "function"
    },
    {
      "inputs": [],
      "name": "name",
      "outputs": [
        {
          "internalType": "string",
          "name": "",
          "type": "string"
        }
      ],
      "stateMutability": "view",
      "type": "function"
    },
    {
      "inputs": [],
      "name": "owner",
      "outputs": [
        {
          "internalType": "address",
          "name": "",
          "type": "address"
        }
      ],
      "stateMutability": "view",
      "type": "function"
    },
    {
      "inputs": [
        {
          "internalType": "uint256",
          "name": "tokenId",
          "type": "uint256"
        }
      ],
      "name": "ownerOf",
      "outputs": [
        {
          "internalType": "address",
          "name": "",
          "type": "address"
        }
      ],
      "stateMutability": "view",
      "type": "function"
    },
    {
      "inputs": [],
      "name": "renounceOwnership",
      "outputs": [],
      "stateMutability": "nonpayable",
      "type": "function"
    },
    {
      "inputs": [
        {
          "internalType": "uint256",
          "name": "tokenId",
          "type": "uint256"
        },
        {
          "internalType": "uint256",
          "name": "salePrice",
          "type": "uint256"
        }
      ],
      "name": "royaltyInfo",
      "outputs": [
        {
          "internalType": "address",
          "name": "",
          "type": "address"
        },
        {
          "internalType": "uint256",
          "name": "",
          "type": "uint256"
        }
      ],
      "stateMutability": "view",
      "type": "function"
    },
    {
      "inputs": [
        {
          "internalType": "address",
          "name": "from",
          "type": "address"
        },
        {
          "internalType": "address",
          "name": "to",
          "type": "address"
        },
        {
          "internalType": "uint256",
          "name": "tokenId",
          "type": "uint256"
        }
      ],
      "name": "safeTransferFrom",
      "outputs": [],
      "stateMutability": "nonpayable",
      "type": "function"
    },
    {
      "inputs": [
        {
          "internalType": "address",
          "name": "from",
          "type": "address"
        },
        {
          "internalType": "address",
          "name": "to",
          "type": "address"
        },
        {
          "internalType": "uint256",
          "name": "tokenId",
          "type": "uint256"
        },
        {
          "internalType": "bytes",
          "name": "data",
          "type": "bytes"
        }
      ],
      "name": "safeTransferFrom",
      "outputs": [],
      "stateMutability": "nonpayable",
      "type": "function"
    },
    {
      "inputs": [
        {
          "internalType": "address",
          "name": "operator",
          "type": "address"
        },
        {
          "internalType": "bool",
          "name": "approved",
          "type": "bool"
        }
      ],
      "name": "setApprovalForAll",
      "outputs": [],
      "stateMutability": "nonpayable",
      "type": "function"
    },
    {
      "inputs": [],
      "name": "symbol",
      "outputs": [
        {
          "internalType": "string",
          "name": "",
          "type": "string"
        }
      ],
      "stateMutability": "view",
      "type": "function"
    },
    {
      "inputs": [
        {
          "internalType": "uint256",
          "name": "tokenId",
          "type": "uint256"
        }
      ],
      "name": "tokenURI",
      "outputs": [
        {
          "internalType": "string",
          "name": "",
          "type": "string"
        }
      ],
      "stateMutability": "view",
      "type": "function"
    },
    {
      "inputs": [
        {
          "internalType": "address",
          "name": "from",
          "type": "address"
        },
        {
          "internalType": "address",
          "name": "to",
          "type": "address"
        },
        {
          "internalType": "uint256",
          "name": "tokenId",
          "type": "uint256"
        }
      ],
      "name": "transferFrom",
      "outputs": [],
      "stateMutability": "nonpayable",
      "type": "function"
    },
    {
      "inputs": [
        {
          "internalType": "address",
          "name": "newOwner",
          "type": "address"
        }
      ],
      "name": "transferOwnership",
      "outputs": [],
      "stateMutability": "nonpayable",
      "type": "function"
    },
    {
      "inputs": [
        {
          "internalType": "address",
          "name": "to",
          "type": "address"
        },
        {
          "internalType": "string",
          "name": "title",
          "type": "string"
        },
        {
          "internalType": "string",
          "name": "artist",
          "type": "string"
        },
        {
          "internalType": "string",
          "name": "metadataURI",
          "type": "string"
        },
        {
          "internalType": "bytes32",
          "name": "audioHash",
          "type": "bytes32"
        },
        {
          "internalType": "bytes32",
          "name": "rightsHash",
          "type": "bytes32"
        },
        {
          "internalType": "enum MusicCopyrightNFT.LicenseType",
          "name": "licenseType",
          "type": "uint8"
        },
        {
          "internalType": "address",
          "name": "royaltyReceiver",
          "type": "address"
        },
        {
          "internalType": "uint96",
          "name": "royaltyFeeNumerator",
          "type": "uint96"
        }
      ],
      "name": "mintMusic",
      "outputs": [
        {
          "internalType": "uint256",
          "name": "",
          "type": "uint256"
        }
      ],
      "stateMutability": "nonpayable",
      "type": "function"
    },
    {
      "inputs": [
        {
          "internalType": "uint256",
          "name": "tokenId",
          "type": "uint256"
        },
        {
          "internalType": "string",
          "name": "newMetadataURI",
          "type": "string"
        }
      ],
      "name": "updateTokenURI",
      "outputs": [],
      "stateMutability": "nonpayable",
      "type": "function"
    },
    {
      "inputs": [
        {
          "internalType": "uint256",
          "name": "tokenId",
          "type": "uint256"
        }
      ],
      "name": "getMusicInfo",
      "outputs": [
        {
          "components": [
            {
              "internalType": "string",
              "name": "title",
              "type": "string"
            },
            {
              "internalType": "string",
              "name": "artist",
              "type": "string"
            },
            {
              "internalType": "bytes32",
              "name": "audioHash",
              "type": "bytes32"
            },
            {
              "internalType": "bytes32",
              "name": "rightsHash",
              "type": "bytes32"
            },
            {
              "internalType": "enum MusicCopyrightNFT.LicenseType",
              "name": "licenseType",
              "type": "uint8"
            },
            {
              "internalType": "address",
              "name": "creator",
              "type": "address"
            },
            {
              "internalType": "uint256",
              "name": "createdAt",
              "type": "uint256"
            }
          ],
          "internalType": "struct MusicCopyrightNFT.MusicInfo",
          "name": "",
          "type": "tuple"
        }
      ],
      "stateMutability": "view",
      "type": "function"
    },
    {
      "inputs": [
        {
          "internalType": "bytes4",
          "name": "interfaceId",
          "type": "bytes4"
        }
      ],
      "name": "supportsInterface",
      "outputs": [
        {
          "internalType": "bool",
          "name": "",
          "type": "bool"
        }
      ],
      "stateMutability": "view",
      "type": "function"
    }
  ],
  "bytecode": "0x60806040523480156200001157600080fd5b50336040518060400160405280601381526020017f4d7573696320436f70797269676874204e4654000000000000000000000000008152506040518060400160405280600581526020017f4d434e4654000000000000000000000000000000000000000000000000000000815250816000908162000090919062000472565b508060019081620000a2919062000472565b505050600073ffffffffffffffffffffffffffffffffffffffff168173ffffffffffffffffffffffffffffffffffffffff16036200011a5760006040517f1e4fbdf70000000000000000000000000000000000000000000000000000000081526004016200011191906200059e565b60405180910390fd5b6200012b816200013260201b60201c565b50620005bb565b6000600960009054906101000a900473ffffffffffffffffffffffffffffffffffffffff16905081600960006101000a81548173ffffffffffffffffffffffffffffffffffffffff021916908373ffffffffffffffffffffffffffffffffffffffff1602179055508173ffffffffffffffffffffffffffffffffffffffff168173ffffffffffffffffffffffffffffffffffffffff167f8be0079c531659141344cd1fd0a4f28419497f9722a3daafe3b4186f6b6457e060405160405180910390a35050565b600081519050919050565b7f4e487b7100000000000000000000000000000000000000000000000000000000600052604160045260246000fd5b7f4e487b7100000000000000000000000000000000000000000000000000000000600052602260045260246000fd5b600060028204905060018216806200027a57607f821691505b60208210810362000290576200028f62000232565b5b50919050565b60008190508160005260206000209050919050565b60006020601f8301049050919050565b600082821b905092915050565b600060088302620002fa7fffffffffffffffffffffffffffffffffffffffffffffffffffffffffffffffff82620002bb565b620003068683620002bb565b95508019841693508086168417925050509392505050565b6000819050919050565b6000819050919050565b6000620003536200034d62000347846200031e565b62000328565b6200031e565b9050919050565b6000819050919050565b6200036f8362000332565b620003876200037e826200035a565b848454620002c8565b825550505050565b600090565b6200039e6200038f565b620003ab81848462000364565b505050565b5b81811015620003d357620003c760008262000394565b600181019050620003b1565b5050565b601f8211156200042257620003ec8162000296565b620003f784620002ab565b8101602085101562000407578190505b6200041f6200041685620002ab565b830182620003b0565b50505b505050565b600082821c905092915050565b6000620004476000198460080262000427565b1980831691505092915050565b600062000462838362000434565b9150826002028217905092915050565b6200047d82620001f8565b67ffffffffffffffff81111562000499576200049862000203565b5b620004a5825462000261565b620004b2828285620003d7565b600060209050601f831160018114620004ea5760008415620004d5578287015190505b620004e1858262000454565b86555062000551565b601f198416620004fa8662000296565b60005b828110156200052457848901518255600182019150602085019450602081019050620004fd565b8683101562000544578489015162000540601f89168262000434565b8355505b6001600288020188555050505b505050505050565b600073ffffffffffffffffffffffffffffffffffffffff82169050919050565b6000620005868262000559565b9050919050565b620005988162000579565b82525050565b6000602082019050620005b560008301846200058d565b92915050565b613ce280620005cb6000396000f3fe608060405234801561001057600080fd5b50600436106101375760003560e01c806370a08231116100b8578063a22cb4651161007c578063a22cb46514610361578063b88d4fde1461037d578063c87b56dd14610399578063e408c32e146103c9578063e985e9c5146103ff578063f2fde38b1461042f57610137565b806370a08231146102bb578063715018a6146102eb57806385c98794146102f55780638da5cb5b1461032557806395d89b411461034357610137565b806319b0f90b116100ff57806319b0f90b146101f257806323b872dd146102225780632a55205a1461023e57806342842e0e1461026f5780636352211e1461028b57610137565b806301ffc9a71461013c57806306fdde031461016c578063081812fc1461018a578063095ea7b3146101ba57806318e97fd1146101d6575b600080fd5b61015660048036038101906101519190612831565b61044b565b6040516101639190612879565b60405180910390f35b61017461045d565b6040516101819190612924565b60405180910390f35b6101a4600480360381019061019f919061297c565b6104ef565b6040516101b191906129ea565b60405180910390f35b6101d460048036038101906101cf9190612a31565b61050b565b005b6101f060048036038101906101eb9190612ba6565b610521565b005b61020c60048036038101906102079190612ca1565b6105e9565b6040516102199190612dce565b60405180910390f35b61023c60048036038101906102379190612de9565b6109bd565b005b61025860048036038101906102539190612e3c565b610abf565b604051610266929190612e7c565b60405180910390f35b61028960048036038101906102849190612de9565b610ca9565b005b6102a560048036038101906102a0919061297c565b610cc9565b6040516102b291906129ea565b60405180910390f35b6102d560048036038101906102d09190612ea5565b610cdb565b6040516102e29190612dce565b60405180910390f35b6102f3610d95565b005b61030f600480360381019061030a919061297c565b610da9565b60405161031c9190613063565b60405180910390f35b61032d610fb3565b60405161033a91906129ea565b60405180910390f35b61034b610fdd565b6040516103589190612924565b60405180910390f35b61037b600480360381019061037691906130b1565b61106f565b005b61039760048036038101906103929190613192565b611085565b005b6103b360048036038101906103ae919061297c565b6110a2565b6040516103c09190612924565b60405180910390f35b6103e360048036038101906103de919061297c565b6111b5565b6040516103f69796959493929190613233565b60405180910390f35b610419600480360381019061041491906132b0565b611334565b6040516104269190612879565b60405180910390f35b61044960048036038101906104449190612ea5565b6113c8565b005b60006104568261144e565b9050919050565b60606000805461046c9061331f565b80601f01602080910402602001604051908101604052809291908181526020018280546104989061331f565b80156104e55780601f106104ba576101008083540402835291602001916104e5565b820191906000526020600020905b8154815290600101906020018083116104c857829003601f168201915b5050505050905090565b60006104fa826114c8565b5061050482611550565b9050919050565b61051d828261051861158d565b611595565b5050565b3373ffffffffffffffffffffffffffffffffffffffff1661054183610cc9565b73ffffffffffffffffffffffffffffffffffffffff1614610597576040517f08c379a000000000000000000000000000000000000000000000000000000000815260040161058e9061339c565b60405180910390fd5b60008151116105db576040517f08c379a00000000000000000000000000000000000000000000000000000000081526004016105d290613408565b60405180910390fd5b6105e582826115a7565b5050565b60008073ffffffffffffffffffffffffffffffffffffffff168a73ffffffffffffffffffffffffffffffffffffffff1603610659576040517f08c379a000000000000000000000000000000000000000000000000000000000815260040161065090613474565b60405180910390fd5b600073ffffffffffffffffffffffffffffffffffffffff168373ffffffffffffffffffffffffffffffffffffffff16036106c8576040517f08c379a00000000000000000000000000000000000000000000000000000000081526004016106bf906134e0565b60405180910390fd5b600089511161070c576040517f08c379a00000000000000000000000000000000000000000000000000000000081526004016107039061354c565b60405180910390fd5b6000885111610750576040517f08c379a0000000000000000000000000000000000000000000000000000000008152600401610747906135b8565b60405180910390fd5b6000875111610794576040517f08c379a000000000000000000000000000000000000000000000000000000000815260040161078b90613624565b60405180910390fd5b6103e8826bffffffffffffffffffffffff1611156107e7576040517f08c379a00000000000000000000000000000000000000000000000000000000081526004016107de90613690565b60405180910390fd5b600a60008154809291906107fa906136df565b91905055506000600a5490506108108b82611603565b61081a81896115a7565b6040518060e001604052808b81526020018a81526020018881526020018781526020018660038111156108505761084f612f2b565b5b81526020013373ffffffffffffffffffffffffffffffffffffffff16815260200142815250600b6000838152602001908152602001600020600082015181600001908161089d91906138d3565b5060208201518160010190816108b391906138d3565b50604082015181600201556060820151816003015560808201518160040160006101000a81548160ff021916908360038111156108f3576108f2612f2b565b5b021790555060a08201518160040160016101000a81548173ffffffffffffffffffffffffffffffffffffffff021916908373ffffffffffffffffffffffffffffffffffffffff16021790555060c08201518160050155905050610957818585611621565b3373ffffffffffffffffffffffffffffffffffffffff16817fe53736ddf732c2b5b4bba5107bde4e2a6997b9f6b88e194b158852782663495c8c8c8c8a6040516109a494939291906139a5565b60405180910390a3809150509998505050505050505050565b600073ffffffffffffffffffffffffffffffffffffffff168273ffffffffffffffffffffffffffffffffffffffff1603610a2f5760006040517f64a0ae92000000000000000000000000000000000000000000000000000000008152600401610a2691906129ea565b60405180910390fd5b6000610a438383610a3e61158d565b6117d9565b90508373ffffffffffffffffffffffffffffffffffffffff168173ffffffffffffffffffffffffffffffffffffffff1614610ab9578382826040517f64283d7b000000000000000000000000000000000000000000000000000000008152600401610ab0939291906139ff565b60405180910390fd5b50505050565b6000806000600860008681526020019081526020016000206040518060400160405290816000820160009054906101000a900473ffffffffffffffffffffffffffffffffffffffff1673ffffffffffffffffffffffffffffffffffffffff1673ffffffffffffffffffffffffffffffffffffffff1681526020016000820160149054906101000a90046bffffffffffffffffffffffff166bffffffffffffffffffffffff166bffffffffffffffffffffffff16815250509050600073ffffffffffffffffffffffffffffffffffffffff16816000015173ffffffffffffffffffffffffffffffffffffffff1603610c545760076040518060400160405290816000820160009054906101000a900473ffffffffffffffffffffffffffffffffffffffff1673ffffffffffffffffffffffffffffffffffffffff1673ffffffffffffffffffffffffffffffffffffffff1681526020016000820160149054906101000a90046bffffffffffffffffffffffff166bffffffffffffffffffffffff166bffffffffffffffffffffffff168152505090505b6000610c5e6119f3565b6bffffffffffffffffffffffff1682602001516bffffffffffffffffffffffff1686610c8a9190613a36565b610c949190613aa7565b90508160000151819350935050509250929050565b610cc483838360405180602001604052806000815250611085565b505050565b6000610cd4826114c8565b9050919050565b60008073ffffffffffffffffffffffffffffffffffffffff168273ffffffffffffffffffffffffffffffffffffffff1603610d4e5760006040517f89c62b64000000000000000000000000000000000000000000000000000000008152600401610d4591906129ea565b60405180910390fd5b600360008373ffffffffffffffffffffffffffffffffffffffff1673ffffffffffffffffffffffffffffffffffffffff168152602001908152602001600020549050919050565b610d9d6119fd565b610da76000611a84565b565b610db161275a565b610dba82610cc9565b50600b60008381526020019081526020016000206040518060e0016040529081600082018054610de99061331f565b80601f0160208091040260200160405190810160405280929190818152602001828054610e159061331f565b8015610e625780601f10610e3757610100808354040283529160200191610e62565b820191906000526020600020905b815481529060010190602001808311610e4557829003601f168201915b50505050508152602001600182018054610e7b9061331f565b80601f0160208091040260200160405190810160405280929190818152602001828054610ea79061331f565b8015610ef45780601f10610ec957610100808354040283529160200191610ef4565b820191906000526020600020905b815481529060010190602001808311610ed757829003601f168201915b5050505050815260200160028201548152602001600382015481526020016004820160009054906101000a900460ff166003811115610f3657610f35612f2b565b5b6003811115610f4857610f47612f2b565b5b81526020016004820160019054906101000a900473ffffffffffffffffffffffffffffffffffffffff1673ffffffffffffffffffffffffffffffffffffffff1673ffffffffffffffffffffffffffffffffffffffff1681526020016005820154815250509050919050565b6000600960009054906101000a900473ffffffffffffffffffffffffffffffffffffffff16905090565b606060018054610fec9061331f565b80601f01602080910402602001604051908101604052809291908181526020018280546110189061331f565b80156110655780601f1061103a57610100808354040283529160200191611065565b820191906000526020600020905b81548152906001019060200180831161104857829003601f168201915b5050505050905090565b61108161107a61158d565b8383611b4a565b5050565b6110908484846109bd565b61109c84848484611cb9565b50505050565b60606110ad826114c8565b5060006006600084815260200190815260200160002080546110ce9061331f565b80601f01602080910402602001604051908101604052809291908181526020018280546110fa9061331f565b80156111475780601f1061111c57610100808354040283529160200191611147565b820191906000526020600020905b81548152906001019060200180831161112a57829003601f168201915b505050505090506000611158611e70565b9050600081510361116d5781925050506111b0565b6000825111156111a257808260405160200161118a929190613b14565b604051602081830303815290604052925050506111b0565b6111ab84611e87565b925050505b919050565b600b6020528060005260406000206000915090508060000180546111d89061331f565b80601f01602080910402602001604051908101604052809291908181526020018280546112049061331f565b80156112515780601f1061122657610100808354040283529160200191611251565b820191906000526020600020905b81548152906001019060200180831161123457829003601f168201915b5050505050908060010180546112669061331f565b80601f01602080910402602001604051908101604052809291908181526020018280546112929061331f565b80156112df5780601f106112b4576101008083540402835291602001916112df565b820191906000526020600020905b8154815290600101906020018083116112c257829003601f168201915b5050505050908060020154908060030154908060040160009054906101000a900460ff16908060040160019054906101000a900473ffffffffffffffffffffffffffffffffffffffff16908060050154905087565b6000600560008473ffffffffffffffffffffffffffffffffffffffff1673ffffffffffffffffffffffffffffffffffffffff16815260200190815260200160002060008373ffffffffffffffffffffffffffffffffffffffff1673ffffffffffffffffffffffffffffffffffffffff16815260200190815260200160002060009054906101000a900460ff16905092915050565b6113d06119fd565b600073ffffffffffffffffffffffffffffffffffffffff168173ffffffffffffffffffffffffffffffffffffffff16036114425760006040517f1e4fbdf700000000000000000000000000000000000000000000000000000000815260040161143991906129ea565b60405180910390fd5b61144b81611a84565b50565b60007f2a55205a000000000000000000000000000000000000000000000000000000007bffffffffffffffffffffffffffffffffffffffffffffffffffffffff1916827bffffffffffffffffffffffffffffffffffffffffffffffffffffffff191614806114c157506114c082611ef0565b5b9050919050565b6000806114d483611f51565b9050600073ffffffffffffffffffffffffffffffffffffffff168173ffffffffffffffffffffffffffffffffffffffff160361154757826040517f7e27328900000000000000000000000000000000000000000000000000000000815260040161153e9190612dce565b60405180910390fd5b80915050919050565b60006004600083815260200190815260200160002060009054906101000a900473ffffffffffffffffffffffffffffffffffffffff169050919050565b600033905090565b6115a28383836001611f8e565b505050565b806006600084815260200190815260200160002090816115c791906138d3565b507ff8e1a15aba9398e019f0b49df1a4fde98ee17ae345cb5f6b5e2c27f5033e8ce7826040516115f79190612dce565b60405180910390a15050565b61161d828260405180602001604052806000815250612153565b5050565b600061162b6119f3565b6bffffffffffffffffffffffff16905080826bffffffffffffffffffffffff161115611692578382826040517fdfd1fc1b00000000000000000000000000000000000000000000000000000000815260040161168993929190613b69565b60405180910390fd5b600073ffffffffffffffffffffffffffffffffffffffff168373ffffffffffffffffffffffffffffffffffffffff1603611706578360006040517f969f08520000000000000000000000000000000000000000000000000000000081526004016116fd929190613ba0565b60405180910390fd5b60405180604001604052808473ffffffffffffffffffffffffffffffffffffffff168152602001836bffffffffffffffffffffffff168152506008600086815260200190815260200160002060008201518160000160006101000a81548173ffffffffffffffffffffffffffffffffffffffff021916908373ffffffffffffffffffffffffffffffffffffffff16021790555060208201518160000160146101000a8154816bffffffffffffffffffffffff02191690836bffffffffffffffffffffffff16021790555090505050505050565b6000806117e584611f51565b9050600073ffffffffffffffffffffffffffffffffffffffff168373ffffffffffffffffffffffffffffffffffffffff16146118275761182681848661216f565b5b600073ffffffffffffffffffffffffffffffffffffffff168173ffffffffffffffffffffffffffffffffffffffff16146118b857611869600085600080611f8e565b6001600360008373ffffffffffffffffffffffffffffffffffffffff1673ffffffffffffffffffffffffffffffffffffffff168152602001908152602001600020600082825403925050819055505b600073ffffffffffffffffffffffffffffffffffffffff168573ffffffffffffffffffffffffffffffffffffffff161461193b576001600360008773ffffffffffffffffffffffffffffffffffffffff1673ffffffffffffffffffffffffffffffffffffffff168152602001908152602001600020600082825401925050819055505b846002600086815260200190815260200160002060006101000a81548173ffffffffffffffffffffffffffffffffffffffff021916908373ffffffffffffffffffffffffffffffffffffffff160217905550838573ffffffffffffffffffffffffffffffffffffffff168273ffffffffffffffffffffffffffffffffffffffff167fddf252ad1be2c89b69c2b068fc378daa952ba7f163c4a11628f55a4df523b3ef60405160405180910390a4809150509392505050565b6000612710905090565b611a0561158d565b73ffffffffffffffffffffffffffffffffffffffff16611a23610fb3565b73ffffffffffffffffffffffffffffffffffffffff1614611a8257611a4661158d565b6040517f118cdaa7000000000000000000000000000000000000000000000000000000008152600401611a7991906129ea565b60405180910390fd5b565b6000600960009054906101000a900473ffffffffffffffffffffffffffffffffffffffff16905081600960006101000a81548173ffffffffffffffffffffffffffffffffffffffff021916908373ffffffffffffffffffffffffffffffffffffffff1602179055508173ffffffffffffffffffffffffffffffffffffffff168173ffffffffffffffffffffffffffffffffffffffff167f8be0079c531659141344cd1fd0a4f28419497f9722a3daafe3b4186f6b6457e060405160405180910390a35050565b600073ffffffffffffffffffffffffffffffffffffffff168273ffffffffffffffffffffffffffffffffffffffff1603611bbb57816040517f5b08ba18000000000000000000000000000000000000000000000000000000008152600401611bb291906129ea565b60405180910390fd5b80600560008573ffffffffffffffffffffffffffffffffffffffff1673ffffffffffffffffffffffffffffffffffffffff16815260200190815260200160002060008473ffffffffffffffffffffffffffffffffffffffff1673ffffffffffffffffffffffffffffffffffffffff16815260200190815260200160002060006101000a81548160ff0219169083151502179055508173ffffffffffffffffffffffffffffffffffffffff168373ffffffffffffffffffffffffffffffffffffffff167f17307eab39ab6107e8899845ad3d59bd9653f200f220920489ca2b5937696c3183604051611cac9190612879565b60405180910390a3505050565b60008373ffffffffffffffffffffffffffffffffffffffff163b1115611e6a578273ffffffffffffffffffffffffffffffffffffffff1663150b7a02611cfd61158d565b8685856040518563ffffffff1660e01b8152600401611d1f9493929190613c1e565b6020604051808303816000875af1925050508015611d5b57506040513d601f19601f82011682018060405250810190611d589190613c7f565b60015b611ddf573d8060008114611d8b576040519150601f19603f3d011682016040523d82523d6000602084013e611d90565b606091505b506000815103611dd757836040517f64a0ae92000000000000000000000000000000000000000000000000000000008152600401611dce91906129ea565b60405180910390fd5b805181602001fd5b63150b7a0260e01b7bffffffffffffffffffffffffffffffffffffffffffffffffffffffff1916817bffffffffffffffffffffffffffffffffffffffffffffffffffffffff191614611e6857836040517f64a0ae92000000000000000000000000000000000000000000000000000000008152600401611e5f91906129ea565b60405180910390fd5b505b50505050565b606060405180602001604052806000815250905090565b6060611e92826114c8565b506000611e9d611e70565b90506000815111611ebd5760405180602001604052806000815250611ee8565b80611ec784612233565b604051602001611ed8929190613b14565b6040516020818303038152906040525b915050919050565b6000634906490660e01b7bffffffffffffffffffffffffffffffffffffffffffffffffffffffff1916827bffffffffffffffffffffffffffffffffffffffffffffffffffffffff19161480611f4a5750611f4982612301565b5b9050919050565b60006002600083815260200190815260200160002060009054906101000a900473ffffffffffffffffffffffffffffffffffffffff169050919050565b8080611fc75750600073ffffffffffffffffffffffffffffffffffffffff168273ffffffffffffffffffffffffffffffffffffffff1614155b156120fb576000611fd7846114c8565b9050600073ffffffffffffffffffffffffffffffffffffffff168373ffffffffffffffffffffffffffffffffffffffff161415801561204257508273ffffffffffffffffffffffffffffffffffffffff168173ffffffffffffffffffffffffffffffffffffffff1614155b801561205557506120538184611334565b155b1561209757826040517fa9fbf51f00000000000000000000000000000000000000000000000000000000815260040161208e91906129ea565b60405180910390fd5b81156120f957838573ffffffffffffffffffffffffffffffffffffffff168273ffffffffffffffffffffffffffffffffffffffff167f8c5be1e5ebec7d5bd14f71427d1e84f3dd0314c0f7b2291e5b200ac8c7c3b92560405160405180910390a45b505b836004600085815260200190815260200160002060006101000a81548173ffffffffffffffffffffffffffffffffffffffff021916908373ffffffffffffffffffffffffffffffffffffffff16021790555050505050565b61215d83836123e3565b61216a6000848484611cb9565b505050565b61217a8383836124dc565b61222e57600073ffffffffffffffffffffffffffffffffffffffff168373ffffffffffffffffffffffffffffffffffffffff16036121ef57806040517f7e2732890000000000000000000000000000000000000000000000000000000081526004016121e69190612dce565b60405180910390fd5b81816040517f177e802f000000000000000000000000000000000000000000000000000000008152600401612225929190612e7c565b60405180910390fd5b505050565b6060600060016122428461259d565b01905060008167ffffffffffffffff81111561226157612260612a7b565b5b6040519080825280601f01601f1916602001820160405280156122935781602001600182028036833780820191505090505b509050600082602001820190505b6001156122f6578080600190039150507f3031323334353637383961626364656600000000000000000000000000000000600a86061a8153600a85816122ea576122e9613a78565b5b049450600085036122a1575b819350505050919050565b60007f80ac58cd000000000000000000000000000000000000000000000000000000007bffffffffffffffffffffffffffffffffffffffffffffffffffffffff1916827bffffffffffffffffffffffffffffffffffffffffffffffffffffffff191614806123cc57507f5b5e139f000000000000000000000000000000000000000000000000000000007bffffffffffffffffffffffffffffffffffffffffffffffffffffffff1916827bffffffffffffffffffffffffffffffffffffffffffffffffffffffff1916145b806123dc57506123db826126f0565b5b9050919050565b600073ffffffffffffffffffffffffffffffffffffffff168273ffffffffffffffffffffffffffffffffffffffff16036124555760006040517f64a0ae9200000000000000000000000000000000000000000000000000000000815260040161244c91906129ea565b60405180910390fd5b6000612463838360006117d9565b9050600073ffffffffffffffffffffffffffffffffffffffff168173ffffffffffffffffffffffffffffffffffffffff16146124d75760006040517f73c6ac6e0000000000000000000000000000000000000000000000000000000081526004016124ce91906129ea565b60405180910390fd5b505050565b60008073ffffffffffffffffffffffffffffffffffffffff168373ffffffffffffffffffffffffffffffffffffffff161415801561259457508273ffffffffffffffffffffffffffffffffffffffff168473ffffffffffffffffffffffffffffffffffffffff16148061255557506125548484611334565b5b8061259357508273ffffffffffffffffffffffffffffffffffffffff1661257b83611550565b73ffffffffffffffffffffffffffffffffffffffff16145b5b90509392505050565b600080600090507a184f03e93ff9f4daa797ed6e38ed64bf6a1f01000000000000000083106125fb577a184f03e93ff9f4daa797ed6e38ed64bf6a1f01000000000000000083816125f1576125f0613a78565b5b0492506040810190505b6d04ee2d6d415b85acef81000000008310612638576d04ee2d6d415b85acef8100000000838161262e5761262d613a78565b5b0492506020810190505b662386f26fc10000831061266757662386f26fc10000838161265d5761265c613a78565b5b0492506010810190505b6305f5e1008310612690576305f5e100838161268657612685613a78565b5b0492506008810190505b61271083106126b55761271083816126ab576126aa613a78565b5b0492506004810190505b606483106126d857606483816126ce576126cd613a78565b5b0492506002810190505b600a83106126e7576001810190505b80915050919050565b60007f01ffc9a7000000000000000000000000000000000000000000000000000000007bffffffffffffffffffffffffffffffffffffffffffffffffffffffff1916827bffffffffffffffffffffffffffffffffffffffffffffffffffffffff1916149050919050565b6040518060e00160405280606081526020016060815260200160008019168152602001600080191681526020016000600381111561279b5761279a612f2b565b5b8152602001600073ffffffffffffffffffffffffffffffffffffffff168152602001600081525090565b6000604051905090565b600080fd5b600080fd5b60007fffffffff0000000000000000000000000000000000000000000000000000000082169050919050565b61280e816127d9565b811461281957600080fd5b50565b60008135905061282b81612805565b92915050565b600060208284031215612847576128466127cf565b5b60006128558482850161281c565b91505092915050565b60008115159050919050565b6128738161285e565b82525050565b600060208201905061288e600083018461286a565b92915050565b600081519050919050565b600082825260208201905092915050565b60005b838110156128ce5780820151818401526020810190506128b3565b60008484015250505050565b6000601f19601f8301169050919050565b60006128f682612894565b612900818561289f565b93506129108185602086016128b0565b612919816128da565b840191505092915050565b6000602082019050818103600083015261293e81846128eb565b905092915050565b6000819050919050565b61295981612946565b811461296457600080fd5b50565b60008135905061297681612950565b92915050565b600060208284031215612992576129916127cf565b5b60006129a084828501612967565b91505092915050565b600073ffffffffffffffffffffffffffffffffffffffff82169050919050565b60006129d4826129a9565b9050919050565b6129e4816129c9565b82525050565b60006020820190506129ff60008301846129db565b92915050565b612a0e816129c9565b8114612a1957600080fd5b50565b600081359050612a2b81612a05565b92915050565b60008060408385031215612a4857612a476127cf565b5b6000612a5685828601612a1c565b9250506020612a6785828601612967565b9150509250929050565b600080fd5b600080fd5b7f4e487b7100000000000000000000000000000000000000000000000000000000600052604160045260246000fd5b612ab3826128da565b810181811067ffffffffffffffff82111715612ad257612ad1612a7b565b5b80604052505050565b6000612ae56127c5565b9050612af18282612aaa565b919050565b600067ffffffffffffffff821115612b1157612b10612a7b565b5b612b1a826128da565b9050602081019050919050565b82818337600083830152505050565b6000612b49612b4484612af6565b612adb565b905082815260208101848484011115612b6557612b64612a76565b5b612b70848285612b27565b509392505050565b600082601f830112612b8d57612b8c612a71565b5b8135612b9d848260208601612b36565b91505092915050565b60008060408385031215612bbd57612bbc6127cf565b5b6000612bcb85828601612967565b925050602083013567ffffffffffffffff811115612bec57612beb6127d4565b5b612bf885828601612b78565b9150509250929050565b6000819050919050565b612c1581612c02565b8114612c2057600080fd5b50565b600081359050612c3281612c0c565b92915050565b60048110612c4557600080fd5b50565b600081359050612c5781612c38565b92915050565b60006bffffffffffffffffffffffff82169050919050565b612c7e81612c5d565b8114612c8957600080fd5b50565b600081359050612c9b81612c75565b92915050565b60008060008060008060008060006101208a8c031215612cc457612cc36127cf565b5b6000612cd28c828d01612a1c565b99505060208a013567ffffffffffffffff811115612cf357612cf26127d4565b5b612cff8c828d01612b78565b98505060408a013567ffffffffffffffff811115612d2057612d1f6127d4565b5b612d2c8c828d01612b78565b97505060608a013567ffffffffffffffff811115612d4d57612d4c6127d4565b5b612d598c828d01612b78565b9650506080612d6a8c828d01612c23565b95505060a0612d7b8c828d01612c23565b94505060c0612d8c8c828d01612c48565b93505060e0612d9d8c828d01612a1c565b925050610100612daf8c828d01612c8c565b9150509295985092959850929598565b612dc881612946565b82525050565b6000602082019050612de36000830184612dbf565b92915050565b600080600060608486031215612e0257612e016127cf565b5b6000612e1086828701612a1c565b9350506020612e2186828701612a1c565b9250506040612e3286828701612967565b9150509250925092565b60008060408385031215612e5357612e526127cf565b5b6000612e6185828601612967565b9250506020612e7285828601612967565b9150509250929050565b6000604082019050612e9160008301856129db565b612e9e6020830184612dbf565b9392505050565b600060208284031215612ebb57612eba6127cf565b5b6000612ec984828501612a1c565b91505092915050565b600082825260208201905092915050565b6000612eee82612894565b612ef88185612ed2565b9350612f088185602086016128b0565b612f11816128da565b840191505092915050565b612f2581612c02565b82525050565b7f4e487b7100000000000000000000000000000000000000000000000000000000600052602160045260246000fd5b60048110612f6b57612f6a612f2b565b5b50565b6000819050612f7c82612f5a565b919050565b6000612f8c82612f6e565b9050919050565b612f9c81612f81565b82525050565b612fab816129c9565b82525050565b612fba81612946565b82525050565b600060e0830160008301518482036000860152612fdd8282612ee3565b91505060208301518482036020860152612ff78282612ee3565b915050604083015161300c6040860182612f1c565b50606083015161301f6060860182612f1c565b5060808301516130326080860182612f93565b5060a083015161304560a0860182612fa2565b5060c083015161305860c0860182612fb1565b508091505092915050565b6000602082019050818103600083015261307d8184612fc0565b905092915050565b61308e8161285e565b811461309957600080fd5b50565b6000813590506130ab81613085565b92915050565b600080604083850312156130c8576130c76127cf565b5b60006130d685828601612a1c565b92505060206130e78582860161309c565b9150509250929050565b600067ffffffffffffffff82111561310c5761310b612a7b565b5b613115826128da565b9050602081019050919050565b6000613135613130846130f1565b612adb565b90508281526020810184848401111561315157613150612a76565b5b61315c848285612b27565b509392505050565b600082601f83011261317957613178612a71565b5b8135613189848260208601613122565b91505092915050565b600080600080608085870312156131ac576131ab6127cf565b5b60006131ba87828801612a1c565b94505060206131cb87828801612a1c565b93505060406131dc87828801612967565b925050606085013567ffffffffffffffff8111156131fd576131fc6127d4565b5b61320987828801613164565b91505092959194509250565b61321e81612c02565b82525050565b61322d81612f81565b82525050565b600060e082019050818103600083015261324d818a6128eb565b9050818103602083015261326181896128eb565b90506132706040830188613215565b61327d6060830187613215565b61328a6080830186613224565b61329760a08301856129db565b6132a460c0830184612dbf565b98975050505050505050565b600080604083850312156132c7576132c66127cf565b5b60006132d585828601612a1c565b92505060206132e685828601612a1c565b9150509250929050565b7f4e487b7100000000000000000000000000000000000000000000000000000000600052602260045260246000fd5b6000600282049050600182168061333757607f821691505b60208210810361334a576133496132f0565b5b50919050565b7f4e6f7420746f6b656e206f776e65720000000000000000000000000000000000600082015250565b6000613386600f8361289f565b915061339182613350565b602082019050919050565b600060208201905081810360008301526133b581613379565b9050919050565b7f496e76616c696420555249000000000000000000000000000000000000000000600082015250565b60006133f2600b8361289f565b91506133fd826133bc565b602082019050919050565b60006020820190508181036000830152613421816133e5565b9050919050565b7f496e76616c696420726563656976657200000000000000000000000000000000600082015250565b600061345e60108361289f565b915061346982613428565b602082019050919050565b6000602082019050818103600083015261348d81613451565b9050919050565b7f496e76616c696420726f79616c74792072656365697665720000000000000000600082015250565b60006134ca60188361289f565b91506134d582613494565b602082019050919050565b600060208201905081810360008301526134f9816134bd565b9050919050565b7f5469746c65207265717569726564000000000000000000000000000000000000600082015250565b6000613536600e8361289f565b915061354182613500565b602082019050919050565b6000602082019050818103600083015261356581613529565b9050919050565b7f4172746973742072657175697265640000000000000000000000000000000000600082015250565b60006135a2600f8361289f565b91506135ad8261356c565b602082019050919050565b600060208201905081810360008301526135d181613595565b9050919050565b7f4d65746164617461205552492072657175697265640000000000000000000000600082015250565b600061360e60158361289f565b9150613619826135d8565b602082019050919050565b6000602082019050818103600083015261363d81613601565b9050919050565b7f526f79616c747920746f6f206869676800000000000000000000000000000000600082015250565b600061367a60108361289f565b915061368582613644565b602082019050919050565b600060208201905081810360008301526136a98161366d565b9050919050565b7f4e487b7100000000000000000000000000000000000000000000000000000000600052601160045260246000fd5b60006136ea82612946565b91507fffffffffffffffffffffffffffffffffffffffffffffffffffffffffffffffff820361371c5761371b6136b0565b5b600182019050919050565b60008190508160005260206000209050919050565b60006020601f8301049050919050565b600082821b905092915050565b6000600883026137897fffffffffffffffffffffffffffffffffffffffffffffffffffffffffffffffff8261374c565b613793868361374c565b95508019841693508086168417925050509392505050565b6000819050919050565b60006137d06137cb6137c684612946565b6137ab565b612946565b9050919050565b6000819050919050565b6137ea836137b5565b6137fe6137f6826137d7565b848454613759565b825550505050565b600090565b613813613806565b61381e8184846137e1565b505050565b5b818110156138425761383760008261380b565b600181019050613824565b5050565b601f8211156138875761385881613727565b6138618461373c565b81016020851015613870578190505b61388461387c8561373c565b830182613823565b50505b505050565b600082821c905092915050565b60006138aa6000198460080261388c565b1980831691505092915050565b60006138c38383613899565b9150826002028217905092915050565b6138dc82612894565b67ffffffffffffffff8111156138f5576138f4612a7b565b5b6138ff825461331f565b61390a828285613846565b600060209050601f83116001811461393d576000841561392b578287015190505b61393585826138b7565b86555061399d565b601f19841661394b86613727565b60005b828110156139735784890151825560018201915060208501945060208101905061394e565b86831015613990578489015161398c601f891682613899565b8355505b6001600288020188555050505b505050505050565b600060808201905081810360008301526139bf81876128eb565b905081810360208301526139d381866128eb565b905081810360408301526139e781856128eb565b90506139f66060830184613224565b95945050505050565b6000606082019050613a1460008301866129db565b613a216020830185612dbf565b613a2e60408301846129db565b949350505050565b6000613a4182612946565b9150613a4c83612946565b9250828202613a5a81612946565b91508282048414831517613a7157613a706136b0565b5b5092915050565b7f4e487b7100000000000000000000000000000000000000000000000000000000600052601260045260246000fd5b6000613ab282612946565b9150613abd83612946565b925082613acd57613acc613a78565b5b828204905092915050565b600081905092915050565b6000613aee82612894565b613af88185613ad8565b9350613b088185602086016128b0565b80840191505092915050565b6000613b208285613ae3565b9150613b2c8284613ae3565b91508190509392505050565b6000613b53613b4e613b4984612c5d565b6137ab565b612946565b9050919050565b613b6381613b38565b82525050565b6000606082019050613b7e6000830186612dbf565b613b8b6020830185613b5a565b613b986040830184612dbf565b949350505050565b6000604082019050613bb56000830185612dbf565b613bc260208301846129db565b9392505050565b600081519050919050565b600082825260208201905092915050565b6000613bf082613bc9565b613bfa8185613bd4565b9350613c0a8185602086016128b0565b613c13816128da565b840191505092915050565b6000608082019050613c3360008301876129db565b613c4060208301866129db565b613c4d6040830185612dbf565b8181036060830152613c5f8184613be5565b905095945050505050565b600081519050613c7981612805565b92915050565b600060208284031215613c9557613c946127cf565b5b6000613ca384828501613c6a565b9150509291505056fea2646970667358221220d75d18988bdfc3055bbd40bf60d7106a137130f7a75a4e3673075b9464262bd764736f6c63430008140033",
  "immutableReferences": {},
  "source": "// SPDX-License-Identifier: MIT\npragma solidity ^0.8.20;\n\nimport \"@openzeppelin/contracts/token/ERC721/extensions/ERC721URIStorage.sol\";\nimport \"@openzeppelin/contracts/token/common/ERC2981.sol\";\nimport \"@openzeppelin/contracts/access/Ownable.sol\";\n\ncontract MusicCopyrightNFT is ERC721URIStorage, ERC2981, Ownable {\n    uint256 private _nextTokenId;\n\n    enum LicenseType {\n        PersonalUse,\n        CommercialUse,\n        RemixAllowed,\n        ExclusiveCopyright\n    }\n\n    struct MusicInfo {\n        string title;\n        string artist;\n        bytes32 audioHash;\n        bytes32 rightsHash;\n        LicenseType licenseType;\n        address creator;\n        uint256 createdAt;\n    }\n\n    mapping(uint256 => MusicInfo) public musicInfos;\n\n    event MusicMinted(\n        uint256 indexed tokenId,\n        address indexed creator,\n        string title,\n        string artist,\n        string tokenURI,\n        LicenseType licenseType\n    );\n\n    constructor()\n        ERC721(\"Music Copyright NFT\", \"MCNFT\")\n        Ownable(msg.sender)\n    {}\n\n    function mintMusic(\n        address to,\n        string memory title,\n        string memory artist,\n        string memory metadataURI,\n        bytes32 audioHash,\n        bytes32 rightsHash,\n        LicenseType licenseType,\n        address royaltyReceiver,\n        uint96 royaltyFeeNumerator\n    ) external returns (uint256) {\n        require(to != address(0), \"Invalid receiver\");\n        require(royaltyReceiver != address(0), \"Invalid royalty receiver\");\n        require(bytes(title).length > 0, \"Title required\");\n        require(bytes(artist).length > 0, \"Artist required\");\n        require(bytes(metadataURI).length > 0, \"Metadata URI required\");\n\n        // 1000 = 10%, vi ERC2981 dung mau so mac dinh 10000\n        require(royaltyFeeNumerator <= 1000, \"Royalty too high\");\n\n        _nextTokenId++;\n        uint256 tokenId = _nextTokenId;\n\n        _safeMint(to, tokenId);\n        _setTokenURI(tokenId, metadataURI);\n\n        musicInfos[tokenId] = MusicInfo({\n            title: title,\n            artist: artist,\n            audioHash: audioHash,\n            rightsHash: rightsHash,\n            licenseType: licenseType,\n            creator: msg.sender,\n            createdAt: block.timestamp\n        });\n\n        _setTokenRoyalty(tokenId, royaltyReceiver, royaltyFeeNumerator);\n\n        emit MusicMinted(\n            tokenId,\n            msg.sender,\n            title,\n            artist,\n            metadataURI,\n            licenseType\n        );\n\n        return tokenId;\n    }\n\n    function updateTokenURI(uint256 tokenId, string memory newMetadataURI) external {\n        require(ownerOf(tokenId) == msg.sender, \"Not token owner\");\n        require(bytes(newMetadataURI).length > 0, \"Invalid URI\");\n\n        _setTokenURI(tokenId, newMetadataURI);\n    }\n\n    function getMusicInfo(uint256 tokenId) external view returns (MusicInfo memory) {\n        ownerOf(tokenId);\n        return musicInfos[tokenId];\n    }\n\n    function supportsInterface(bytes4 interfaceId)\n        public\n        view\n        override(ERC721URIStorage, ERC2981)\n        returns (bool)\n    {\n        return super.supportsInterface(interfaceId);\n    }\n}",
  "sourcePath": "/Users/nguyenthanhlam/Desktop/MusicNFTProject/contracts/MusicCopyrightNFT.sol",
  "compiler": {
    "name": "solc",
    "version": "0.8.20+commit.a1b79de6.Emscripten.clang"
  },
  "schemaVersion": "3.4.16",
  "updatedAt": "2026-05-30T05:07:49.503Z",
  "devdoc": {
    "errors": {
      "ERC2981InvalidDefaultRoyalty(uint256,uint256)": [
        {
          "details": "The default royalty set is invalid (eg. (numerator / denominator) >= 1)."
        }
      ],
      "ERC2981InvalidDefaultRoyaltyReceiver(address)": [
        {
          "details": "The default royalty receiver is invalid."
        }
      ],
      "ERC2981InvalidTokenRoyalty(uint256,uint256,uint256)": [
        {
          "details": "The royalty set for an specific `tokenId` is invalid (eg. (numerator / denominator) >= 1)."
        }
      ],
      "ERC2981InvalidTokenRoyaltyReceiver(uint256,address)": [
        {
          "details": "The royalty receiver for `tokenId` is invalid."
        }
      ],
      "ERC721IncorrectOwner(address,uint256,address)": [
        {
          "details": "Indicates an error related to the ownership over a particular token. Used in transfers.",
          "params": {
            "owner": "Address of the current owner of a token.",
            "sender": "Address whose tokens are being transferred.",
            "tokenId": "Identifier number of a token."
          }
        }
      ],
      "ERC721InsufficientApproval(address,uint256)": [
        {
          "details": "Indicates a failure with the `operator`’s approval. Used in transfers.",
          "params": {
            "operator": "Address that may be allowed to operate on tokens without being their owner.",
            "tokenId": "Identifier number of a token."
          }
        }
      ],
      "ERC721InvalidApprover(address)": [
        {
          "details": "Indicates a failure with the `approver` of a token to be approved. Used in approvals.",
          "params": {
            "approver": "Address initiating an approval operation."
          }
        }
      ],
      "ERC721InvalidOperator(address)": [
        {
          "details": "Indicates a failure with the `operator` to be approved. Used in approvals.",
          "params": {
            "operator": "Address that may be allowed to operate on tokens without being their owner."
          }
        }
      ],
      "ERC721InvalidOwner(address)": [
        {
          "details": "Indicates that an address can't be an owner. For example, `address(0)` is a forbidden owner in EIP-20. Used in balance queries.",
          "params": {
            "owner": "Address of the current owner of a token."
          }
        }
      ],
      "ERC721InvalidReceiver(address)": [
        {
          "details": "Indicates a failure with the token `receiver`. Used in transfers.",
          "params": {
            "receiver": "Address to which tokens are being transferred."
          }
        }
      ],
      "ERC721InvalidSender(address)": [
        {
          "details": "Indicates a failure with the token `sender`. Used in transfers.",
          "params": {
            "sender": "Address whose tokens are being transferred."
          }
        }
      ],
      "ERC721NonexistentToken(uint256)": [
        {
          "details": "Indicates a `tokenId` whose `owner` is the zero address.",
          "params": {
            "tokenId": "Identifier number of a token."
          }
        }
      ],
      "OwnableInvalidOwner(address)": [
        {
          "details": "The owner is not a valid owner account. (eg. `address(0)`)"
        }
      ],
      "OwnableUnauthorizedAccount(address)": [
        {
          "details": "The caller account is not authorized to perform an operation."
        }
      ]
    },
    "events": {
      "Approval(address,address,uint256)": {
        "details": "Emitted when `owner` enables `approved` to manage the `tokenId` token."
      },
      "ApprovalForAll(address,address,bool)": {
        "details": "Emitted when `owner` enables or disables (`approved`) `operator` to manage all of its assets."
      },
      "BatchMetadataUpdate(uint256,uint256)": {
        "details": "This event emits when the metadata of a range of tokens is changed. So that the third-party platforms such as NFT market could timely update the images and related attributes of the NFTs."
      },
      "MetadataUpdate(uint256)": {
        "details": "This event emits when the metadata of a token is changed. So that the third-party platforms such as NFT market could timely update the images and related attributes of the NFT."
      },
      "Transfer(address,address,uint256)": {
        "details": "Emitted when `tokenId` token is transferred from `from` to `to`."
      }
    },
    "kind": "dev",
    "methods": {
      "approve(address,uint256)": {
        "details": "See {IERC721-approve}."
      },
      "balanceOf(address)": {
        "details": "See {IERC721-balanceOf}."
      },
      "getApproved(uint256)": {
        "details": "See {IERC721-getApproved}."
      },
      "isApprovedForAll(address,address)": {
        "details": "See {IERC721-isApprovedForAll}."
      },
      "name()": {
        "details": "See {IERC721Metadata-name}."
      },
      "owner()": {
        "details": "Returns the address of the current owner."
      },
      "ownerOf(uint256)": {
        "details": "See {IERC721-ownerOf}."
      },
      "renounceOwnership()": {
        "details": "Leaves the contract without owner. It will not be possible to call `onlyOwner` functions. Can only be called by the current owner. NOTE: Renouncing ownership will leave the contract without an owner, thereby disabling any functionality that is only available to the owner."
      },
      "royaltyInfo(uint256,uint256)": {
        "details": "Returns how much royalty is owed and to whom, based on a sale price that may be denominated in any unit of exchange. The royalty amount is denominated and should be paid in that same unit of exchange."
      },
      "safeTransferFrom(address,address,uint256)": {
        "details": "See {IERC721-safeTransferFrom}."
      },
      "safeTransferFrom(address,address,uint256,bytes)": {
        "details": "See {IERC721-safeTransferFrom}."
      },
      "setApprovalForAll(address,bool)": {
        "details": "See {IERC721-setApprovalForAll}."
      },
      "symbol()": {
        "details": "See {IERC721Metadata-symbol}."
      },
      "tokenURI(uint256)": {
        "details": "See {IERC721Metadata-tokenURI}."
      },
      "transferFrom(address,address,uint256)": {
        "details": "See {IERC721-transferFrom}."
      },
      "transferOwnership(address)": {
        "details": "Transfers ownership of the contract to a new account (`newOwner`). Can only be called by the current owner."
      }
    },
    "version": 1
  },
  "userdoc": {
    "kind": "user",
    "methods": {},
    "version": 1
  }
}